:020000040800F2
:1000000000000220E11C0008F1170008F3170008A7
:10001000F5170008F7170008F9170008000000009E
:10002000000000000000000000000000FB170008B6
:10003000FD17000800000000FF1700080118000865
:10004000311D0008311D0008311D0008311D000858
:10005000311D0008311D0008091800081318000898
:100060001D18000827180008311D0008311D000860
:10007000311D0008311D0008311D0008311D000828
:1000800031180008311D0008311D0008311D00081D
:10009000311D0008311D0008311D0008311D000808
:1000A000311D0008311D0008311D0008311D0008F8
:1000B000311D0008311D0008311D0008311D0008E8
:1000C000311D0008311D0008311D0008311D0008D8
:1000D000311D00084118000861180008311D000892
:1000E000311D0008311D0008311D0008311D0008B8
:1000F000311D0008311D0008311D0008311D0008A8
:10010000311D0008311D0008311D0008311D000897
:10011000311D0008311D000881180008311D00083C
:10012000311D0008311D000891180008311D00081C
:10013000311D0008311D0008311D0008311D000867
:10014000311D0008311D0008311D0008311D000857
:10015000311D0008311D0008311D0008311D000847
:10016000311D0008311D0008311D0008311D000837
:10017000311D0008311D0008311D0008000000007D
:08018000311D0008311D0008CB
:1001900010B5054C237833B9044B13B10448AFF3C1
:1001A00000800123237010BDC00600200000000065
:1001B0008493000808B5034B1BB103490348AFF310
:1001C000008008BD00000000C406002084930008E1
:1001D0004FF0FF0C1CEAD0521EBF1CEAD15392EA2A
:1001E0000C0F93EA0C0F6FD01A4480EA010C400206
:1001F00018BF5FEA41211ED04FF0006343EA501060
:1002000043EA5111A0FB01310CF00040B1F5000FA1
:100210003EBF490041EAD3715B0040EA010062F150
:100220007F02FD2A1DD8B3F1004F40EBC25008BF3A
:1002300020F00100704790F0000F0CF0004C08BF58
:1002400049024CEA502040EA51207F3AC2BFD2F125
:10025000FF0340EAC250704740F400004FF0000333
:10026000013A5DDC12F1190FDCBF00F0004070476D
:10027000C2F10002410021FA02F1C2F1200200FAAB
:1002800002FC5FEA310040F1000053EA4C0308BF72
:1002900020EADC70704792F0000F00F0004C02BFC3
:1002A000400010F4000F013AF9D040EA0C0093F03E
:1002B000000F01F0004C02BF490011F4000F013B98
:1002C000F9D041EA0C018FE70CEAD15392EA0C0F06
:1002D00018BF93EA0C0F0AD030F0004C18BF31F071
:1002E000004CD8D180EA010000F00040704790F047
:1002F000000F17BF90F0004F084691F0000F91F0EB
:10030000004F14D092EA0C0F01D142020FD193EAB0
:100310000C0F03D14B0218BF084608D180EA010038
:1003200000F0004040F0FE4040F40000704740F014
:10033000FE4040F44000704781F0004102E000BF01
:1003400083F0004330B54FEA41044FEA430594EA95
:10035000050F08BF90EA020F1FBF54EA000C55EAD0
:10036000020C7FEA645C7FEA655C00F0E2804FEAA1
:100370005454D4EB5555B8BF6D420CDD2C4480EA83
:10038000020281EA030382EA000083EA010180EAB3
:10039000020281EA0303362D88BF30BD11F0004F01
:1003A0004FEA01314FF4801C4CEA113102D0404237
:1003B00061EB410113F0004F4FEA03334CEA133372
:1003C00002D0524263EB430394EA050F00F0A7808A
:1003D000A4F10104D5F1200E0DDB02FA0EFC22FA85
:1003E00005F2801841F1000103FA0EF2801843FA79
:1003F00005F359410EE0A5F120050EF1200E012A6A
:1004000003FA0EFC28BF4CF0020C43FA05F3C018A7
:1004100051EBE37101F0004507D54FF0000EDCF120
:10042000000C7EEB00006EEB0101B1F5801F1BD3C9
:10043000B1F5001F0CD349085FEA30004FEA3C0CCD
:1004400004F101044FEA445212F5800F80F09A80C3
:10045000BCF1004F08BF5FEA500C50F1000041EBC7
:10046000045141EA050130BD5FEA4C0C404141EBCB
:100470000101013C28BFB1F5801FE9D291F0000FC6
:1004800004BF01460020B1FA81F308BF2033A3F175
:100490000B03B3F120020CDA0C3208DD02F1140C6C
:1004A000C2F10C0201FA0CF021FA02F10CE002F1A7
:1004B0001402D8BFC2F1200C01FA02F120FA0CFCA0
:1004C000DCBF41EA0C019040E41AA2BF01EB0451E9
:1004D000294330BD6FEA04041F3C1CDA0C340EDCE7
:1004E00004F11404C4F1200220FA04F001FA02F32A
:1004F00040EA030021FA04F345EA030130BDC4F1E8
:100500000C04C4F1200220FA02F001FA04F340EADC
:100510000300294630BD21FA04F0294630BD94F08D
:10052000000F83F4801306BF81F480110134013D74
:100530004EE77FEA645C18BF7FEA655C29D094EAE5
:10054000050F08BF90EA020F05D054EA000C04BF63
:100550001946104630BD91EA030F1EBF002100204E
:1005600030BD5FEA545C05D14000494128BF41F0ED
:10057000004130BD14F580043CBF01F5801130BD51
:1005800001F0004545F0FE4141F470014FF00000DC
:1005900030BD7FEA645C1ABF194610467FEA655C8D
:1005A0001CBF0B46024650EA013406BF52EA03352F
:1005B00091EA030F41F4002130BD00BF90F0000F1D
:1005C00004BF0021704730B54FF4806404F1320459
:1005D0004FF000054FF0000150E700BF90F0000F12
:1005E00004BF0021704730B54FF4806404F1320439
:1005F00010F0004548BF40424FF000013EE700BF09
:1006000042004FEAE2014FEA31014FEA02701FBF98
:1006100012F07F4393F07F4F81F06051704732F0CA
:100620007F4208BF704793F07F4F04BF41F4002121
:10063000704730B54FF4607401F0004521F000417F
:100640001CE700BF50EA010208BF704730B54FF009
:1006500000050AE050EA010208BF704730B511F00A
:10066000004502D5404261EB41014FF4806404F142
:1006700032045FEA915C3FF4D8AE4FF003025FEAC8
:10068000DC0C18BF03325FEADC0C18BF033202EB4C
:10069000DC02C2F1200300FA03FC20FA02F001FAA6
:1006A00003FE40EA0E0021FA02F11444BDE600BF49
:1006B00080F0004002E000BF81F0004142001FBF17
:1006C0005FEA410392EA030F7FEA226C7FEA236C20
:1006D0006AD04FEA1262D2EB1363C1BFD218414015
:1006E00048404140B8BF5B42192B88BF704710F0AB
:1006F000004F40F4000020F07F4018BF404211F04E
:10070000004F41F4000121F07F4118BF494292EAB5
:10071000030F3FD0A2F1010241FA03FC10EB0C00E1
:10072000C3F1200301FA03F100F0004302D549426E
:1007300060EB4000B0F5000F13D3B0F1807F06D31B
:1007400040084FEA310102F10102FE2A51D2B1F113
:10075000004F40EBC25008BF20F0010040EA030008
:100760007047490040EB0000013A28BFB0F5000F88
:10077000EDD2B0FA80FCACF1080CB2EB0C0200FA3E
:100780000CF0AABF00EBC25052421843BCBFD0408D
:100790001843704792F0000F81F4000106BF80F407
:1007A00000000132013BB5E74FEA41037FEA226CCA
:1007B00018BF7FEA236C21D092EA030F04D092F095
:1007C000000F08BF0846704790EA010F1CBF0020C9
:1007D000704712F07F4F04D1400028BF40F0004026
:1007E000704712F100723CBF00F50000704700F046
:1007F000004343F0FE4040F4000070477FEA22626D
:1008000016BF08467FEA23630146420206BF5FEA3D
:10081000412390EA010F40F4800070474FF000033D
:1008200004E000BF10F0004348BF40425FEA000C04
:1008300008BF704743F0964301464FF000001CE0AC
:1008400050EA010208BF70474FF000030AE000BF02
:1008500050EA010208BF704711F0004302D5404240
:1008600061EB41015FEA010C02BF844601460020B2
:1008700043F0B64308BFA3F18053A3F50003BCFACD
:100880008CF2083AA3EBC25310DB01FA02FC63447A
:1008900000FA02FCC2F12002BCF1004F20FA02F281
:1008A00043EB020008BF20F00100704702F1200274
:1008B00001FA02FCC2F1200250EA4C0021FA02F2D5
:1008C00043EB020008BF20EADC70704753B94AB915
:1008D000002908BF00281CBF4FF0FF314FF0FF3048
:1008E00000F06AB9ADF1080C6DE904CE00F006F82D
:1008F000DDF804E0DDE9022304B070472DE9F0479C
:10090000089D0C46002B4ED194468C458646B2FA83
:1009100082F262D94AB1C2F12003914020FA03F376
:100920000CFA02FC194300FA02FE4FEA1C471FFAB8
:100930008CF6B1FBF7F44FEA1E4307FB141143EAB0
:10094000014304FB06F199420AD91CEB030304F1AD
:10095000FF3080F01281994240F20F81023C6344E3
:10096000591A1FFA8EF3B1FBF7F007FB101143EA97
:10097000014300FB06F69E420AD91CEB030300F17B
:10098000FF3180F0FC809E4240F2F98063440238DF
:100990009B1B40EA044000211DB1D3400022C5E961
:1009A0000032BDE8F0878B4205D90DB1C5E90001E1
:1009B00000210846F5E7B3FA83F1002946D1A342A6
:1009C00002D39042C0F0F080861A64EB030301204A
:1009D000002DE6D0C5E90063E3E7002A40F09080EF
:1009E000A1EB0C044FEA1C481FFA8CF70121B4FB61
:1009F000F8F64FEA1E4308FB164443EA044307FB9C
:100A000006F0984208D91CEB030306F1FF3402D22A
:100A1000984200F2CD8026461C1A1FFA8EF3B4FBD2
:100A2000F8F008FB104443EA044300FB07F79F4239
:100A300008D91CEB030300F1FF3402D29F4200F2FD
:100A4000B0802046DB1B40EA0640A5E7C1F1200646
:100A50008B4022FA06F71F4320FA06FC04FA01F342
:100A600043EA0C03F44000FA01F8380C4FEA13494A
:100A7000B4FBF0FE1FFA87FC00FB1E4449EA044465
:100A80000EFB0CF9A14502FA01F20AD93C190EF14C
:100A9000FF3A80F08480A14540F28180AEF1020EE1
:100AA0003C44A4EB09041FFA83F9B4FBF0F300FB08
:100AB000134449EA044403FB0CFCA44507D93C1940
:100AC00003F1FF3067D2A44565D9023B3C4443EAB9
:100AD0000E40A0FB0293A4EB0C049C42CE469C4625
:100AE00051D34ED055B1B8EB0E0364EB0C0404FAAD
:100AF00006F6CB401E43CC40C5E90064002150E718
:100B0000C2F1200320FA03F10CFA02FC24FA03F3E9
:100B100094400C434FEA1C4800FA02FE1FFA8CF77F
:100B2000B3FBF8F008FB1031230C43EA014300FB50
:100B300007F1994208D91CEB030300F1FF362CD2D0
:100B400099422AD9023863445B1AA4B2B3FBF8F184
:100B500008FB113344EA034401FB07F3A34208D91D
:100B60001CEB040401F1FF3613D2A34211D9023960
:100B70006444E41A41EA004139E70446F0E60846D5
:100B800006E7C845AED2B9EB020E63EB070C01389D
:100B9000A8E73146EDE7034699E73046D4E7D64665
:100BA0007FE7634402384DE70646234608460FE7D1
:100BB000023E634430E700BF704700BF034613F8AE
:100BC000012B002AFBD1181A0138704700000000E1
:100BD00001F0FF01102A2BDB10F0070F08D010F8EE
:100BE000013B013A8B422DD010F0070F42B3F6D1F2
:100BF000F0B441EA012141EA014122F007047FF00B
:100C000000070023F0E80256083C85EA010586EA61
:100C1000010685FA47F5A3FA87F586FA47F6A5FA9D
:100C200087F68EB9EED1F0BC01F0FF0102F00702A9
:100C300032B110F8013B013A83EA010313B1F8D154
:100C40000020704701387047002D06BF3546033835
:100C5000073815F0010F07D1013015F4807F02BF6E
:100C6000013015F4C03F0130F0BC0138704700BFBF
:100C700070B54FF0FF0C4CF4E06C1CEA11541DBF32
:100C80001CEA135594EA0C0F95EA0C0F00F0DEF8FD
:100C90002C4481EA030621EA4C5123EA4C5350EAE2
:100CA000013518BF52EA033541F4801143F4801333
:100CB00038D0A0FB02CE4FF00005E1FB02E506F0C4
:100CC0000042E0FB03E54FF00006E1FB03569CF019
:100CD000000F18BF4EF0010EA4F1FF04B6F5007F1F
:100CE00064F5407404D25FEA4E0E6D4146EB060691
:100CF00042EAC62141EA55514FEAC52040EA5E501A
:100D00004FEACE2EB4F1FD0C88BFBCF5E06F1ED8C3
:100D1000BEF1004F08BF5FEA500E50F1000041EBFA
:100D2000045170BD06F0004646EA010140EA0200A7
:100D300081EA0301B4EB5C04C2BFD4EB0C0541EAC9
:100D4000045170BD41F480114FF0000E013C00F3DE
:100D5000AB8014F1360FDEBF002001F0004170BD02
:100D6000C4F10004203C35DA0C341BDC04F114041B
:100D7000C4F1200500FA05F320FA04F001FA05F2A7
:100D800040EA020001F0004221F0004110EBD37074
:100D900021FA04F642EB06015EEA430E08BF20EAA0
:100DA000D37070BDC4F10C04C4F1200500FA04F343
:100DB00020FA05F001FA04F240EA020001F00041D5
:100DC00010EBD37041F100015EEA430E08BF20EA48
:100DD000D37070BDC4F1200500FA05F24EEA020E90
:100DE00020FA04F301FA05F243EA020321FA04F0BF
:100DF00001F0004121FA04F220EA020000EBD37076
:100E00005EEA430E08BF20EAD37070BD94F0000F75
:100E10000FD101F00046400041EB010111F4801FA9
:100E200008BF013CF7D041EA060195F0000F18BF5A
:100E3000704703F00046520043EB030313F4801F96
:100E400008BF013DF7D043EA0603704794EA0C0F50
:100E50000CEA135518BF95EA0C0F0CD050EA410666
:100E600018BF52EA4306D1D181EA030101F00041E3
:100E70004FF0000070BD50EA410606BF104619460B
:100E800052EA430619D094EA0C0F02D150EA013617
:100E900013D195EA0C0F05D152EA03361CBF104658
:100EA00019460AD181EA030101F0004141F0FE41F7
:100EB00041F470014FF0000070BD41F0FE4141F47B
:100EC000780170BD70B54FF0FF0C4CF4E06C1CEA7B
:100ED00011541DBF1CEA135594EA0C0F95EA0C0F30
:100EE00000F0A7F8A4EB050481EA030E52EA0335EB
:100EF0004FEA013100F088804FEA03334FF080550C
:100F000045EA131343EA12634FEA022245EA111538
:100F100045EA10654FEA00260EF000419D4208BFE9
:100F2000964244F1FD0404F5407402D25B084FEA96
:100F30003202B61A65EB03055B084FEA32024FF442
:100F400080104FF4002CB6EB020E75EB030E22BF9F
:100F5000B61A754640EA0C005B084FEA3202B6EB5F
:100F6000020E75EB030E22BFB61A754640EA5C000E
:100F70005B084FEA3202B6EB020E75EB030E22BF9E
:100F8000B61A754640EA9C005B084FEA3202B6EB9F
:100F9000020E75EB030E22BFB61A754640EADC005E
:100FA00055EA060E18D04FEA051545EA16754FEAC0
:100FB00006164FEAC30343EA52734FEAC2025FEADE
:100FC0001C1CC0D111F4801F0BD141EA00014FF06D
:100FD00000004FF0004CB6E711F4801F04BF01433E
:100FE0000020B4F1FD0C88BFBCF5E06F3FF6AFAE5A
:100FF000B5EB030C04BFB6EB020C5FEA500C50F1EA
:10100000000041EB045170BD0EF0004E4EEA11316C
:1010100014EB5C04C2BFD4EB0C0541EA045170BD73
:1010200041F480114FF0000E013C90E645EA060EB7
:101030008DE60CEA135594EA0C0F08BF95EA0C0FE5
:101040003FF43BAF94EA0C0F0AD150EA01347FF42D
:1010500034AF95EA0C0F7FF425AF104619462CE704
:1010600095EA0C0F06D152EA03353FF4FDAE104667
:10107000194622E750EA410618BF52EA43067FF4B8
:10108000C5AE50EA41047FF40DAF52EA43057FF448
:10109000EBAE12E74FF0FF3C06E000BF4FF0010C53
:1010A00002E000BF4FF0010C4DF804CD4FEA410CB7
:1010B0007FEA6C5C4FEA430C18BF7FEA6C5C1BD084
:1010C00001B050EA410C0CBF52EA430C91EA030F05
:1010D00002BF90EA020F0020704710F1000F91EA62
:1010E000030F58BF994208BF90422CBFD8176FEA30
:1010F000E37040F0010070474FEA410C7FEA6C5CFE
:1011000002D150EA013C07D14FEA430C7FEA6C5C04
:10111000D6D152EA033CD3D05DF8040B704700BF30
:101120008446104662468C461946634600E000BF7E
:1011300001B5FFF7B7FF002848BF10F1000F01BD50
:101140004DF808EDFFF7F4FF0CBF012000205DF81B
:1011500008FB00BF4DF808EDFFF7EAFF34BF0120A0
:1011600000205DF808FB00BF4DF808EDFFF7E0FF39
:1011700094BF012000205DF808FB00BF4DF808ED8A
:10118000FFF7CEFF94BF012000205DF808FB00BFF1
:101190004DF808EDFFF7C4FF34BF012000205DF8D3
:1011A00008FB00BF4FEA410C7FEA6C5C02D150EAB9
:1011B000013C0AD14FEA430C7FEA6C5C02D152EA4F
:1011C000033C02D14FF0000070474FF00100704720
:1011D0004FEA410212F5001215D211D56FF478735F
:1011E000B3EB625212D94FEAC12343F0004343EA02
:1011F000505311F0004F23FA02F018BF40427047DD
:101200004FF00000704750EA013005D111F0004066
:1012100008BF6FF0004070474FF00000704700BFFC
:1012200010B582B000240094124B1A6B42F40012E5
:101230001A631A6B02F400120092009A01941A6B5E
:1012400042F480021A631B6B03F480030193019B39
:1012500022462146102000F027FE102000F034FE28
:10126000224621463A2000F01FFE3A2000F02CFED4
:1012700002B010BD003802402DE9F0418AB00024D0
:101280000594069407940894099401943A4B1A6BB8
:1012900042F010021A631A6B02F010020192019AD6
:1012A00002941A6B42F080021A631A6B02F08002F9
:1012B0000292029A03941A6B42F001021A631A6BAB
:1012C00002F001020392039A04941A6B42F00402A2
:1012D0001A631B6B03F004030493049BDFF89C80E8
:1012E00022461021404601F065F9254D2246302165
:1012F000284601F05FF90F2305934FF4041306937A
:10130000079405A91F4801F05BF8102305930127F6
:10131000069702260796089405A9404601F050F862
:101320003023059306970796089405A9284601F0EF
:1013300047F822462146062000F0B6FD062000F0C0
:10134000C3FD22462146072000F0AEFD072000F035
:10135000BBFD22462146082000F0A6FD082000F033
:10136000B3FD22462146092000F09EFD092000F031
:10137000ABFD0AB0BDE8F081003802400000024039
:101380000008024000100240F0B58BB004461C4B30
:10139000984204D01B4B9C4215D00BB0F0BD1E46AA
:1013A0009D8D194F2A463946684603F085FC2A462A
:1013B0003946164803F080FCFF232A46694630462A
:1013C00002F00DFCE6E7FF23122211490C4802F05F
:1013D00006FC104E104D06F1200C34460FCC286050
:1013E0006960AA60EB60264610356445F5D1237824
:1013F0002B700A4B21225A70094B01221A70CCE73C
:10140000580900201009002018070020F0060020CD
:10141000A093000840070020BF090020BC0900205D
:10142000EC060020154B834200D0704700B58FB00A
:10143000134B1B78012B08D0FF23122211491248AD
:1014400002F0CDFB0FB05DF804FB02F019FF0F4B6B
:10145000986BFFF7D5F802460B460D4901A803F03B
:101460004BFB01A8FFF7AAFBFF2382B201A90648A4
:1014700002F0B5FB024B00221A70E3E708080020D7
:10148000EC060020CC93000858090020BC0900207D
:10149000B8930008012806D0022809D004280CD0EF
:1014A00008280FD070470A4A136801331360F3E726
:1014B000084A136801331360F0E7074A13680133E1
:1014C0001360EDE7054A136801331360EAE700BFD4
:1014D000E8060020E4060020E0060020DC060020EC
:1014E00072B6FEE700B595B03022002108A803F0DF
:1014F00066FB0023039304930593069307930193DC
:101500001E4A116C41F080511164126C02F080523D
:101510000192019A02931A4A116841F480411160C4
:10152000126802F480420292029A02220892012179
:101530000B9110210C910E920F9308231093A82366
:10154000119312920423139308A801F047F888B965
:101550000F23039302230493002305934FF4A05316
:1015600006930793052103A801F088FA20B915B066
:101570005DF804FBFFF7B4FFFFF7B2FF003802404D
:101580000070004080B584B000F0FAFBFFF7AAFFBE
:10159000FFF772FEFFF744FE00F0B6F800F0C0FA65
:1015A00000F0DEF900F064FA00F0D4FA0022012124
:1015B000062000F079FC01221146072000F074FC9F
:1015C00002220121082000F06FFC032201210920E2
:1015D00000F06AFC3E4802F044FE28223D493E48A5
:1015E00002F00CFE21223D493D4802F007FE3D4835
:1015F00001F0C6FD03F055F803F053F83A4C002112
:10160000204602F0B9F80421204602F0B5F8374D23
:101610000195002400944FF6FF73354A2146204679
:1016200003F00AF8019500944FF6FF73314A214602
:10163000502003F001F8019500944FF6FF732E4AF5
:101640001221204602F0F8FF019500944FF6FF7337
:101650002A4A2421204602F0EFFF019500944FF61C
:10166000FF73274A3621204602F0E6FF254B186813
:10167000FFF7D8F80246012602961C4D019500247A
:1016800000944FF6FF7321466E2003F019F9104FB6
:101690000296019500944FF6FF737A6A1221282072
:1016A00003F00EF90296019500944FF6FF73BA6AA3
:1016B0002421282003F004F90296019500944FF6A6
:1016C000FF73FA6A3621282003F0FAF8CEE700BF4C
:1016D000BC090020180700205809002040070020FE
:1016E0001009002008080020C007002020940008EE
:1016F000E0930008E8930008EC930008F0930008DA
:10170000F4930008E806002008B50D480D4B03606F
:101710004FF48273436000238360C36003614361BD
:101720004FF400728261C3610362436283620A23E1
:10173000C36201F01DFB00B908BDFFF7D1FEFBE756
:10174000640700200030014000B589B000230393F6
:1017500004930593069307930268154B9A4202D0AF
:1017600009B05DF804FB0021019103F584335A6C44
:1017700042F480525A645A6C02F480520192019AE7
:1017800002911A6B42F001021A631B6B03F0010312
:101790000293029BA0230393022304930323069343
:1017A0000523079303A9034800F00AFED8E700BF0A
:1017B000003001400000024082B0002100910B4B3C
:1017C0005A6C42F480425A645A6C02F4804200928D
:1017D000009A01911A6C42F080521A641B6C03F05B
:1017E00080530193019B02B0704700BF0038024054
:1017F000FEE7FEE7FEE7FEE7FEE77047704770474B
:1018000008B500F0D7FA08BD08B5012000F0D8FEF1
:1018100008BD08B5022000F0D3FE08BD08B50420BD
:1018200000F0CEFE08BD08B5082000F0C9FE08BDD6
:1018300008B5024800F0D6FC08BD00BF50080020E3
:1018400010B5054C204602F0E9FA2822034920464B
:1018500002F0D4FC10BD00BF58090020180700207A
:1018600010B5054C204602F0D9FA2822034920463B
:1018700002F0C4FC10BD00BF10090020400700208A
:1018800008B5024801F0C5FC08BD00BF08080020EB
:1018900008B5024800F0A6FC08BD00BFB008002053
:1018A0000120704708B503F0D9F9162303604FF003
:1018B000FF3008BD08B54FF0FF31FFF7F3FFFEE73B
:1018C00070B50C461646002506E0AFF300802146B1
:1018D00001F8010B01350C46B542F6DB304670BD10
:1018E00070B50C461646002504E014F8010BAFF362
:1018F00000800135B542F8DB304670BD4FF0FF3057
:1019000070474FF400534B60002070470120704730
:101910000020704710B503460C4A0D490D48006879
:1019200040B10C4800680344521A934206D8094A51
:10193000136010BD0748084C0460F2E703F08EF90D
:101940000C2303604FF0FF30F3E700BF00000220DC
:1019500000040000BC070020500E0020704700006B
:1019600000B583B00023009301930F480F4A026033
:1019700040F247324260836042F20F72C26083617C
:1019800001F062FD50B900230093019369460648B7
:1019900001F074FF28B903B05DF804FBFFF7A0FD68
:1019A000F1E7FFF79DFDF6E7080800200010004072
:1019B00000B583B00368154A934205D0144A934298
:1019C00016D003B05DF804FB00220092114B196C95
:1019D00041F0100119641B6C03F010030093009B8D
:1019E0000121362000F060FA362000F06DFAE8E7B9
:1019F00000230193074B5A6C42F480325A645B6CAB
:101A000003F480330193019BDBE700BF001000402B
:101A1000004001400038024000B587B00023019328
:101A2000029303930493059302680E4B9A4202D0EB
:101A300007B05DF804FB002300930B4B1A6B42F0D8
:101A400010021A631B6B03F010030093009B6023CA
:101A50000193022302930323059301A9034800F095
:101A6000AFFCE5E7004001400038024000100240B2
:101A700000B58DB00023089309930A930B9301934B
:101A80000293039304930593069307932248234AF2
:101A90000260A7224260836040F2E732C2600361C5
:101AA000836101F0D1FC38BB4FF48053089308A93F
:101AB000194801F0D3FD10BB174801F0F1FC08BB39
:101AC000602301934FF4FA7302930022039205926C
:101AD00001A9114801F048FDB8B90023029304227E
:101AE0000DEB02010C4801F03FFD88B90A48FFF7F1
:101AF00093FF0DB05DF804FBFFF7F2FCD4E7FFF7AE
:101B0000EFFCD9E7FFF7ECFCDAE7FFF7E9FCE4E7E5
:101B1000FFF7E6FCEAE700BFC007002000400140F5
:101B200008B50A480A4B03604FF4E13343600023D1
:101B30008360C36003610C2242618361C36102F070
:101B40001EF800B908BDFFF7CBFCFBE758090020E1
:101B50000010014008B50A480A4B03604FF4E13316
:101B6000436000238360C36003610C224261836190
:101B7000C36102F004F800B908BDFFF7B1FCFBE750
:101B8000100900200044004030B58BB0044600230B
:101B9000059306930793089309930368484A934271
:101BA00004D0484A934246D00BB030BD0025019581
:101BB000454B5A6C42F010025A645A6C02F0100203
:101BC0000192019A02951A6B42F001021A631B6B93
:101BD00003F001030293029B4FF4C06305930223B9
:101BE0000693032308930723099305A9374800F0B8
:101BF000E7FB3748374B03604FF000634360856075
:101C0000C5604FF48063036145618561C56105620C
:101C1000456200F0EFF958B92D4BE3639C63002255
:101C20000121252000F040F9252000F04DF9BBE707
:101C3000FFF756FCF0E700250395234B1A6C42F49E
:101C400000321A641A6C02F400320392039A04956B
:101C50001A6B42F001021A631B6B03F00103049339
:101C6000049B0C2305930223069303230893072365
:101C7000099305A9154800F0A3FB1748174B03600B
:101C80004FF0006343608560C5604FF4806303617B
:101C900045618561C5610562456200F0ABF958B9DF
:101CA0000D4BE3639C6300221146262000F0FCF8F4
:101CB000262000F009F977E7FFF712FCF0E700BFF4
:101CC0000010014000440040003802400000024083
:101CD000B0080020406402405008002088600240A4
:101CE000DFF834D0FFF73AFE0C480D490D4A0023C7
:101CF00002E0D458C4500433C4188C42F9D30A4AC1
:101D00000A4C002301E013600432A242FBD302F02C
:101D1000ABFFFFF737FC70470000022000000020F7
:101D2000C00600208CB20008C0060020500E002023
:101D3000FEE7000010B504460E4B1A784FF47A7394
:101D4000B3FBF2F30C4A1068B0FBF3F000F0C0F8FC
:101D500068B90F2C01D901200AE0002221464FF07A
:101D6000FF3000F0A1F8054B1C60002000E00120CE
:101D700010BD00BF0400002000000020080000206B
:101D800008B50B4B1A6842F400721A601A6842F4E4
:101D900080621A601A6842F480721A60032000F0B0
:101DA00071F80F20FFF7C6FFFFF706FD002008BD02
:101DB000003C0240034A1168034B1B780B4413603C
:101DC000704700BFA009002004000020014B1868E4
:101DD000704700BFA009002038B50446FFF7F6FFA2
:101DE0000546B4F1FF3F02D0044B1B781C44FFF7BB
:101DF000EDFF401BA042FAD338BD00BF0400002015
:101E0000002807DB00F01F02400901239340024A2B
:101E100042F82030704700BF00E100E0002808DBF6
:101E20000901C9B200F1604000F5614080F800137B
:101E3000704700F00F000901C9B2014B19547047F7
:101E400014ED00E000B500F00700C0F1070CBCF194
:101E5000040F28BF4FF0040C031D062B0FD9C31E1F
:101E60004FF0FF3E0EFA0CF021EA000199400EFA05
:101E700003FE22EA0E0241EA02005DF804FB0023A1
:101E8000EEE70000074AD36823F4E0631B041B0C51
:101E9000000200F4E060034343F0BF6343F4003307
:101EA000D360704700ED00E010B50446054BD868DC
:101EB000C0F30220FFF7C6FF01462046FFF7AEFF42
:101EC00010BD00BF00ED00E008B5FFF799FF08BDA9
:101ED0000138B0F1807F0BD24FF0E0235861054A02
:101EE000F02182F823100020986107221A617047C0
:101EF0000120704700ED00E030B405682C6824F440
:101F000080242C60046863608368402B05D00368DC
:101F100099600368DA6030BC704703689A600368B0
:101F2000D960F8E710B40368D9B210390B4AA2FBA4
:101F3000014212090A4CA25CC2655F2908D923F448
:101F40007F7323F0030304338365806D10BC7047F7
:101F500023F47F7323F003038365F6E7ABAAAAAAF1
:101F600010940008836A826992B9012B0AD0022B6F
:101F700002D00BB100207047C36A13F0807F28D1D4
:101F800000207047C36AB3F1C07F24D0002070479F
:101F9000B2F5005F09D0022B25D9032B25D1C36AE6
:101FA00013F0807F23D100207047032B03D8DFE894
:101FB00003F01404140A00207047C36A13F0807FF2
:101FC0000DD100207047C36AB3F1C07F09D0002053
:101FD00070470120704701207047012070470120A1
:101FE0007047012070470120704700207047012092
:101FF0007047000070B50446FFF7E8FE002C5BD088
:102000000546022384F83530002384F834302268F2
:10201000136823F00103136023681A6812F0010F9C
:102020000AD0FFF7D3FE431B052BF5D920236365A8
:10203000032084F8350070BD1A6820491140626899
:10204000A0680243E06802432069024360690243DA
:10205000A0690243E0690243206A02430A43616ABD
:1020600004291ED01A602668756925F00705636A81
:102070001D43042B07D1A36A1D43E36A1BB120460D
:10208000FFF770FF90B975612046FFF74BFFE26DD7
:102090003F239340836000206065012384F835303E
:1020A000C9E7E16A206B01430A43DBE7402363652C
:1020B000012084F83500BEE70120BCE73F8010F026
:1020C00038B50446856D90F8340001282BD00120E6
:1020D00084F8340094F83500C0B2012804D00023FD
:1020E00084F83430022038BD022084F83500002006
:1020F00060652046FFF700FFE26D3F239340AB6031
:102100002268136843F016031360236C23B122681E
:10211000136843F0080313602268136843F0010357
:1021200013600020DFE70220DDE770B50446866D0E
:10213000FFF74CFE94F83530DBB2022B06D080233B
:102140006365002384F83430012070BD05462268A1
:10215000136823F0160313602268536923F0800389
:102160005361236CE3B12268136823F00803136002
:102170002268136823F00103136023681B6813F0BF
:10218000010F11D0FFF722FE431B052BF5D92023A9
:102190006365032084F83500002384F83430D4E7E5
:1021A000A36C002BDFD1E3E7E26D3F239340B360E4
:1021B000012384F83530002084F83400C5E790F816
:1021C0003530DBB2022B03D08023436501207047FA
:1021D000052380F835300268136823F0010313608B
:1021E00000207047F0B583B0044600230193724B82
:1021F0001D68724BA3FB0535AD0A876D3E68C26D45
:1022000008239340334210D003681A6812F0040F79
:102210000BD01A6822F004021A60C26D08239340A2
:10222000BB60436D43F001034365E26D01239340BE
:10223000334209D02268526912F0800F04D0BB608B
:10224000636D43F002036365E26D04239340334200
:1022500009D02268126812F0020F04D0BB60636DCF
:1022600043F004036365E26D10239340334224D0AE
:102270002268126812F0080F1FD0BB6023681A682A
:1022800012F4802F0DD01B6813F4002F04D1236C9F
:102290009BB12046984710E0A36C73B12046984745
:1022A0000BE01A6812F4807F03D11A6822F008024A
:1022B0001A60236C0BB120469847E26D20239340AF
:1022C000334255D02268126812F0100F50D0BB6014
:1022D00094F83530DBB2052B0ED023681A6812F45F
:1022E000802F33D01B6813F4002F2AD1636C002B8E
:1022F0003ED0204698473BE02268136823F016033F
:1023000013602268536923F080035361236CA3B1E7
:102310002268136823F008031360E26D3F239340A3
:10232000BB60012384F83530002384F83430236DFA
:10233000002B3FD0204698473CE0A36C002BE7D110
:10234000EBE7E36BA3B12046984711E01A6812F45B
:10235000807F09D11A6822F010021A60012384F8E4
:102360003530002384F83430E36B0BB120469847B6
:10237000636DFBB1636D13F0010F17D0052384F873
:1023800035302268136823F001031360019B013389
:102390000193AB4204D823681B6813F0010FF5D1F9
:1023A000012384F83530002384F83430E36C0BB11A
:1023B0002046984703B0F0BD00000020B5814E1BB9
:1023C00000230F2B00F2EC8030B583B068E0856805
:1023D0004FEA430E032404FA0EF425EA0405CC6800
:1023E00004FA0EF42C438460446824EA02044A6828
:1023F000C2F300129A40224342605FE0DC080834D6
:1024000050F8242003F00705AD004FF00F0E0EFA30
:1024100005FE22EA0E0E0A69AA4042EA0E0240F8C0
:1024200024205FE0072200E0002202FA0EF22A4395
:1024300002345C4D45F824205B4A94686FEA0C0234
:1024400024EA0C05D1F804E01EF4801F01D04CEA08
:102450000405554CA560E46802EA0405D1F804E0DF
:102460001EF4001F01D04CEA04054F4CE56064687F
:1024700002EA0405D1F804E01EF4003F01D04CEA62
:102480000405494C6560246822404D6815F4803F7E
:1024900001D04CEA0402444C226001330F2B7DD85A
:1024A00001229A400C6804EA020C32EA0404F4D1D6
:1024B0004C6804F00304013C012C88D94A6802F0FE
:1024C0000302032A09D0C4685D000322AA4024EA5B
:1024D00002048A68AA402243C2604A6802F00302EA
:1024E000022A8BD004684FEA430E032202FA0EF24E
:1024F00024EA02044A6802F0030202FA0EF22243BE
:1025000002604A6812F4403FC7D000220192274A75
:10251000546C44F480445464526C02F4804201923E
:10252000019A9C08A51C1F4A52F8255003F0030E7F
:102530004FEA8E0E0F2202FA0EF225EA02051C4A1D
:1025400090423FF471AF02F5806290421AD002F5DA
:102550008062904218D002F58062904216D002F557
:102560008062904214D002F58062904212D002F54F
:102570008062904210D002F5806290423FF452AFE8
:10258000082252E7012250E702224EE703224CE7DD
:1025900004224AE7052248E7062246E703B030BD99
:1025A000704700BF00380140003C01400038024045
:1025B000000002400AB181617047090481617047DF
:1025C00008B5054B5B69034200D108BD024B586159
:1025D000FEF760FFF9E700BF003C0140002800F073
:1025E000E08170B582B00446036813F0010F3BD060
:1025F0009F4B9B6803F00C03042B2CD09C4B9B68D7
:1026000003F00C03082B21D06368B3F5803F4FD053
:10261000B3F5A02F52D0964B1A6822F480321A607C
:102620001A6822F480221A606368002B50D0FFF7EA
:10263000CDFB05468E4B1B6813F4003F14D1FFF70A
:10264000C5FB401B6428F5D90320B1E1884B5B68CA
:1026500013F4800FD8D0864B1B6813F4003F03D0CF
:102660006368002B00F09F81236813F0020F54D0A1
:102670007F4B9B6813F00C0F3ED07D4B9B6803F0A3
:102680000C03082B33D0E368002B68D0794B012270
:102690001A60FFF79BFB0546754B1B6813F0020F92
:1026A00054D1FFF793FB401B0228F5D903207FE1AB
:1026B0006F4A136843F480331360B5E76C4B1A68B4
:1026C00042F480221A601A6842F480321A60ABE742
:1026D000FFF77CFB0546664B1B6813F4003FC3D035
:1026E000FFF774FB401B6428F5D9032060E1604BC1
:1026F0005B6813F4800FC6D15D4B1B6813F0020FAB
:1027000003D0E368012B40F05081594A136823F04D
:10271000F803216943EAC1031360236813F0080F2B
:1027200042D063696BB3534B0122C3F8802EFFF78D
:102730004DFB05464E4B5B6F13F0020F34D1FFF794
:1027400045FB401B0228F5D9032031E1484A1368B4
:1027500023F0F803216943EAC1031360DDE7454B29
:1027600000221A60FFF732FB0546414B1B6813F04D
:10277000020FD2D0FFF72AFB401B0228F5D9032015
:1027800016E13C4B0022C3F8802EFFF71FFB0546E5
:10279000374B5B6F13F0020F06D0FFF717FB401BA0
:1027A0000228F5D9032003E1236813F0040F77D042
:1027B0002F4B1B6C13F0805F33D1002301932C4B04
:1027C0001A6C42F080521A641B6C03F08053019320
:1027D000019B0125284B1B6813F4807F23D0A3683D
:1027E000012B34D0052B38D0214B1A6F22F0010277
:1027F0001A671A6F22F004021A67A368002B3DD0F3
:10280000FFF7E4FA06461A4B1B6F13F0020F46D18E
:10281000FFF7DCFA801B41F288339842F3D903209A
:10282000C6E00025D6E7144A136843F480731360AA
:10283000FFF7CCFA0646104B1B6813F4807FCED10D
:10284000FFF7C4FA801B0228F5D90320B0E0084A3C
:10285000136F43F001031367CFE7054B1A6F42F084
:1028600004021A671A6F42F001021A67C5E700BF37
:10287000003802400000474200700040FFF7A6FA0F
:102880000646524B1B6F13F0020F08D0FFF79EFA5B
:10289000801B41F288339842F3D9032088E0EDB9D8
:1028A000A369002B00F08380484A926802F00C0272
:1028B000082A51D0022B17D0454B00221A66FFF789
:1028C00085FA0446414B1B6813F0007F42D0FFF7A6
:1028D0007DFA001B0228F5D9032069E03B4A136CFE
:1028E00023F080531364DBE7394B00221A66FFF7AD
:1028F0006DFA0546354B1B6813F0007F06D0FFF7D5
:1029000065FA401B0228F5D9032051E0E369226AE9
:102910001343626A43EA8213A26A5208013A43EA05
:102920000243E26A43EA0263284A5360284B0122C9
:102930001A66FFF74BFA0446244B1B6813F0007F1E
:1029400006D1FFF743FA001B0228F5D903202FE038
:1029500000202DE000202BE0012B2BD01B4B5B68CF
:1029600003F48001E269914226D103F03F02216A1B
:102970008A4223D1616A47F6C0721A40B2EB811FC6
:102980001ED103F44031A26A5208013AB1EB024F62
:1029900018D103F07063E26AB3EB026F14D1002028
:1029A00006E001207047012002E0012000E0002045
:1029B00002B070BD0120FBE70120F9E70120F7E735
:1029C0000120F5E70120F3E70120F1E7003802409C
:1029D0000000474208B5264B9B6803F00C03042B0C
:1029E00041D0082B41D1224B5A6802F03F025B686C
:1029F00013F4800F12D01E4B5968C1F388111D4883
:102A00000023A1FB0001FDF761FF194B5B68C3F3D5
:102A1000014301335B00B0FBF3F027E0144B58682F
:102A2000C0F388104FEA401CBCEB000C6EEB0E0E9E
:102A30004FEA8E1343EA9C634FEA8C11B1EB0C0111
:102A400063EB0E03DB0043EA5173C90011EB000C8A
:102A500043F10003990200234FEA8C2041EA9C5184
:102A6000FDF734FFD1E7034800E0034808BD00BF8D
:102A700000380240001BB7000024F400002800F0DA
:102A80009B8070B50D4604464F4B1B6803F007034F
:102A90008B4208D2CBB24C4A1370136803F0070381
:102AA0008B4240F08B80236813F0020F17D013F095
:102AB000040F04D0454A936843F4E05393602368BD
:102AC00013F0080F04D0414A936843F460439360C5
:102AD0003E4A936823F0F003A1680B439360236898
:102AE00013F0010F32D06368012B21D09A1E012A06
:102AF00025D9364A126812F0020F61D033498A682C
:102B000022F0030213438B60FFF760F906462F4B58
:102B10009B6803F00C036268B3EB820F16D0FFF7DB
:102B200055F9801B41F288339842F0D9032042E0E6
:102B3000264A126812F4003FE0D101203BE0234A0C
:102B4000126812F0007FD9D1012034E01E4B1B68BF
:102B500003F00703AB4207D9EAB21B4B1A701B689C
:102B600003F00703AB422DD1236813F0040F06D006
:102B7000164A936823F4E053E1680B43936023689B
:102B800013F0080F07D0114A936823F460432169BA
:102B900043EAC1039360FFF71DFF0C4B9B68C3F32F
:102BA00003130B4AD35CD8400A4B18600A4B1868D1
:102BB000FFF7C0F8002070BD012070470120FAE740
:102BC0000120F8E70120F6E7003C0240003802400F
:102BD000009400080000002008000020014B186845
:102BE000704700BF0000002008B5FFF7F7FF044B57
:102BF0009B68C3F38223034AD35CD84008BD00BF5F
:102C000000380240F893000808B5FFF7E7FF044BCF
:102C10009B68C3F34233034AD35CD84008BD00BF6E
:102C200000380240F89300082DE9F04782B00546CD
:102C3000884617461E46FFF7C9F80A9B1B1A03EB86
:102C40000609FFF7C3F88246284B1B68C3F3CB3352
:102C500009FB03F301932B689C6838EA04040CBF5A
:102C600001230023BB423DD0B6F1FF3FF3D0FFF775
:102C7000ADF8A0EB0A00484507D2019A02B14A46D6
:102C8000019B013B01939146E5E72A68536823F0D5
:102C9000E00353606B68B3F5827F0BD0AB6AB3F58A
:102CA000005F14D0012385F85130002385F850309F
:102CB000032018E0AB68B3F5004F02D0B3F5806F86
:102CC000ECD12A68136823F040031360E6E72A6812
:102CD000136823F4005313602A68136843F4005305
:102CE0001360DFE7002002B0BDE8F087000000209D
:102CF00070B584B004460D46164600920B4601227C
:102D00000221FFF791FFD0B9174B1B68174AA2FBAE
:102D100003235B0D4FF47A7202FB03F303936368A2
:102D2000B3F5827F11D0039B3BB1039B013B03931F
:102D300023689B6813F0800FF5D104B070BD636DFC
:102D400043F0200363650320F7E700962B4600223B
:102D500080212046FFF768FF0028EED0636D43F026
:102D6000200363650320E8E700000020819F5E16D2
:102D700000285AD010B50446436A33B94368B3F506
:102D8000827F05D00023C36102E000230361436119
:102D90000023A36294F85130002B40D0022384F822
:102DA00051302268136823F040031360636803F412
:102DB0008273A26802F404421343E26802F40062E0
:102DC0001343226902F002021343626902F0010216
:102DD0001343A26902F400721343E26902F038025D
:102DE0001343226A02F080021343A26A02F40052E3
:102DF000216813430B60638B03F00403626A02F0E3
:102E00001002216813434B602268D36923F40063E6
:102E1000D36100206065012384F8513010BD84F82F
:102E200050302046FEF790FCB8E7012070472DE9AE
:102E3000F04383B00446894690461D46FEF7C6FF20
:102E400094F85160F6B2012E40F0CC800746B9F1FB
:102E5000000F00F0C880B8F1000F00F0C48094F8B3
:102E60005030012B00F0C380012384F8503003233D
:102E700084F8513000236365C4F83090A4F834809E
:102E8000A4F83680A363A387E38763642364A368FD
:102E9000B3F5004F1ED023681A6812F0400F03D11B
:102EA0001A6842F040021A60E368B3F5006F1CD064
:102EB000636813B1B8F1010F5FD1226B23681278F8
:102EC0001A73236B01332363E38E9BB2013B9BB2E6
:102ED000E38652E02268136823F0400313602268FF
:102EE000136843F480431360D5E7636813B1B8F106
:102EF000010F15D1226B23681288DA60236B02332D
:102F00002363E38E9BB2013B9BB2E38608E0FEF7AE
:102F10005DFFC01BA84202D3B5F1FF3F15D1A5B19B
:102F2000E38E9BB2002B42D023689A6812F0020F06
:102F3000EDD0226B1288DA60236B02332363E38EB9
:102F40009BB2013B9BB2E386EAE7012384F8513050
:102F5000002384F85030032645E0226B12781A7360
:102F6000236B01332363B4F836C01FFA8CFC0CF1D9
:102F7000FF3C1FFA8CFCA4F836C0E38E9BB2B3B1C1
:102F800023689A6812F0020FE7D1FEF71FFFC01BFB
:102F9000A84202D3B5F1FF3F01D1002DEDD10123AD
:102FA00084F85130002384F8503003261BE03A4661
:102FB00029462046FFF79CFE08B120236365A368DD
:102FC00033B901932368DA6801929B680193019BEE
:102FD000012384F85130002384F85030636D13B915
:102FE000002600E00226304603B0BDE8F08302264A
:102FF000F9E7000030B4036A026A22F001020262BB
:103000004268846924F0730C0C6844EA0C0423F0D1
:10301000020C8B6843EA0C03114DA84203D005F55E
:103020008065A84205D123F00803CD682B4323F027
:1030300004030B4DA84203D005F58065A84207D1D3
:1030400022F440724D6945EA020C8A6942EA0C0298
:10305000426084614A684263036230BC704700BFCB
:103060000000014030B4036A026A22F480720262F6
:103070004268C46924F0730C0C6844EA0C0523F41C
:1030800000738C6843EA0423114CA04203D004F57A
:103090008064A04206D123F40063CC6843EA042391
:1030A00023F480630A4CA04203D004F58064A0425C
:1030B00007D122F440524C6942EA04128C6942EA78
:1030C00004124260C5614A68C263036230BC704743
:1030D0000000014030B4036A026A22F480520262A6
:1030E0004468C26922F4E6420D6842EA052223F4EC
:1030F00000538D6843EA0533094DA84203D005F516
:103100008065A84204D124F480444D6944EA8514C2
:103110004460C2614A680264036230BC704700BF09
:103120000000014010B4036A046A24F00104046240
:10313000846924F0F00C4CEA021223F00A030B43DA
:103140008261036210BC704710B4036A046A24F001
:1031500010040462846924F4704C4CEA023223F0B7
:10316000A00343EA01138261036210BC70478368C5
:1031700023F070030B4343F00703836070470000A4
:1031800090F83D30DBB2012B37D1022380F83D307F
:103190000268D36843F00103D3600368194A93427D
:1031A00020D0B3F1804F1DD0A2F57C42934219D0BC
:1031B00002F58062934215D002F58062934211D0ED
:1031C00002F5784293420DD002F57052934209D035
:1031D000A2F59432934205D01A6842F001021A60B7
:1031E000002070479A6802F00702062A07D01A6882
:1031F00042F001021A600020704701207047002051
:10320000704700BF0000014070477047704770472B
:10321000704770B504460368DE681D6915F0020F3B
:1032200010D016F0020F0DD06FF002021A610123C8
:10323000037703689B6913F0030F5ED0FFF7E6FF87
:103240000023237715F0040F12D016F0040F0FD0CF
:1032500023686FF004021A610223237723689B69B5
:1032600013F4407F4FD02046FFF7D0FF0023237791
:1032700015F0080F12D016F0080F0FD023686FF06A
:1032800008021A61042323772368DB6913F0030F14
:1032900040D02046FFF7BAFF0023237715F0100F28
:1032A00012D016F0100F0FD023686FF010021A61C1
:1032B000082323772368DB6913F4407F31D020464D
:1032C000FFF7A4FF0023237715F0010F02D016F0BB
:1032D000010F2DD115F0800F02D016F0800F2FD1E5
:1032E00015F0400F02D016F0400F31D115F0200F2D
:1032F00002D016F0200F33D170BDFFF786FF2046B5
:10330000FFF785FF9CE72046FFF77FFF2046FFF78A
:103310007EFFABE72046FFF778FF2046FFF777FFF9
:10332000BAE72046FFF771FF2046FFF770FFC9E7B5
:1033300023686FF001021A612046FEF773F8C9E7AF
:1033400023686FF080021A61204600F0DEFAC7E7BA
:1033500023686FF040021A612046FFF759FFC5E766
:1033600023686FF020021A61204600F0CDFAC3E70F
:103370000368344A904212D0B0F1804F0FD0A2F5CA
:103380007C4290420BD002F58062904207D002F559
:103390008062904203D002F57842904203D123F03C
:1033A00070034A681343274A90422AD0B0F1804FF5
:1033B00027D0A2F57C42904223D002F58062904251
:1033C0001FD002F5806290421BD002F578429042F5
:1033D00017D002F57052904213D002F580629042ED
:1033E0000FD002F5806290420BD0A2F59832904245
:1033F00007D002F58062904203D002F580629042CD
:1034000003D123F44073CA68134323F080034A694D
:10341000134303608B68C3620B688362094B984255
:1034200003D003F58063984201D10B690363012344
:103430004361036913F0010F03D0036923F0010313
:10344000036170470000014040B310B5044690F896
:103450003D30F3B1022384F83D30214651F8040B8E
:10346000FFF786FF012384F8463084F83E3084F865
:103470003F3084F8403084F8413084F8423084F89A
:10348000433084F8443084F8453084F83D300020DF
:1034900010BD80F83C30FEF78BFADBE70120704767
:1034A00040B310B5044690F83D30F3B1022384F8E0
:1034B0003D30214651F8040BFFF75AFF012384F8F1
:1034C000463084F83E3084F83F3084F8403084F849
:1034D000413084F8423084F8433084F8443084F832
:1034E000453084F83D30002010BD80F83C30FFF7B7
:1034F0008BFEDBE70120704730B4036A026A22F0DA
:10350000100202624468826922F4E6420D6842EACF
:10351000052223F020038D6843EA0513114DA842CC
:1035200003D005F58065A84206D123F08003CD685D
:1035300043EA051323F040030A4DA84203D005F5E2
:103540008065A84207D124F440644D6944EA8504AB
:103550008D6944EA8504446082614A68826303623B
:1035600030BC70470000014038B590F83C30012B6A
:1035700066D004460D46012380F83C300C2A5AD808
:10358000DFE802F0075959591B595959305959590F
:1035900044000068FFF72EFD2268936943F008039A
:1035A00093612268936923F004039361226893690D
:1035B00029690B43936100203EE00068FFF79CFF00
:1035C0002268936943F4006393612268936923F44A
:1035D0008063936122689369296943EA01239361B7
:1035E000002029E00068FFF73DFD2268D36943F021
:1035F0000803D3612268D36923F00403D3612268EE
:10360000D36929690B43D361002015E00068FFF7F7
:1036100061FD2268D36943F40063D3612268D369F2
:1036200023F48063D3612268D369296943EA0123C3
:10363000D361002000E00120002384F83C3038BD35
:103640000220FCE710B4846824F47F4C42EA032291
:103650000A4342EA0C02826010BC704790F83C308A
:10366000012B78D010B50446012380F83C300223AA
:1036700080F83D300268936823F47F4323F077039A
:1036800093600B68602B4CD029D8402B54D00CD9B8
:10369000502B22D1CA6849680068FFF743FD5021CA
:1036A0002068FFF764FD002005E0202B0DD009D92C
:1036B000302B0AD00120012384F83D30002384F808
:1036C0003C3010BD0BB1102B05D119462068FFF717
:1036D0004EFD0020EFE70120EDE70120EBE7B3F519
:1036E000805F34D0B3F5005F0CD1CB684A6889683D
:1036F0000068FFF7A7FF2268936843F48043936054
:103700000020D8E7702B24D1CB684A68896800680C
:10371000FFF798FF2268936843F0770393600020D7
:10372000C9E7CA6849680068FFF70EFD6021206894
:10373000FFF71DFD0020BEE7CA6849680068FFF773
:10374000F1FC40212068FFF712FD0020B3E70020C4
:10375000B1E70120AFE70220704701F01F014FF0F1
:10376000010C0CFA01FC036A23EA0C030362036AEE
:103770008A4013430362704710B504460846002987
:1037800042D194F83E30DBB2013B18BF0123002B3D
:103790006ED1002851D1022384F83E300122014627
:1037A0002068FFF7DAFF2368334A934203D002F51B
:1037B0008062934203D15A6C42F400425A642368F7
:1037C0002D4A934249D0B3F1804F46D0A2F57C42B6
:1037D000934242D002F5806293423ED002F580626D
:1037E00093423AD002F57842934236D002F57052B5
:1037F000934232D0A2F5943293422ED01A6842F00E
:1038000001021A60002032E0042908D008290DD0F6
:1038100094F84130DBB2013B18BF0123B7E794F8BD
:103820003F30DBB2013B18BF0123B0E794F84030D2
:10383000DBB2013B18BF0123A9E7042805D0082803
:1038400007D0022384F84130A8E7022384F83F30F0
:10385000A4E7022384F84030A0E79A6802F0070248
:10386000062A07D01A6842F001021A60002010BD33
:103870000120FCE70020FAE70000014090F83C201E
:10388000012A3CD010B40346012280F83C200222D9
:1038900080F83D2002685068946820F0700C086839
:1038A00040EA0C0050601A68164882421AD0B2F101
:1038B000804F17D0A0F57C40824213D000F5806085
:1038C00082420FD000F5806082420BD000F5784034
:1038D000824207D000F57050824203D0A0F59430A8
:1038E000824204D124F0800449682143916001227E
:1038F00083F83D20002083F83C0010BC7047022074
:10390000704700BF0000014070477047026802F135
:103910000C0353E8003F23F0C0030C3242E80031AF
:103920000029F3D1202380F841307047026802F16A
:103930000C0353E8003F23F490730C3242E800314B
:103940000029F3D1026802F1140353E8003F23F089
:103950000103143242E800310029F3D1036B012B3B
:1039600005D0202380F842300023036370470268AB
:1039700002F10C0353E8003F23F010030C3242E83D
:1039800000310029F3D1ECE790F84130DBB2212B74
:1039900001D0022070478368B3F5805F17D0036AB7
:1039A0005A1C02621A7803685A60C38C9BB2013BAE
:1039B0009BB2C3844BB90268D36823F08003D36001
:1039C0000268D36843F04003D36000207047036966
:1039D000002BE4D1036A1B880268C3F30803536019
:1039E000036A02330362E0E710B504460268136914
:1039F00023F44053C1680B431361836802691A437F
:103A000043691A43C3691A430168CB6823F4164318
:103A100023F00C031343CB600268536923F4407313
:103A200081690B4353610368314A934206D002F522
:103A30008062934202D0FFF7D7F801E0FFF7E4F885
:103A4000E369B3F5004F29D00021031849411B1841
:103A500041F10001C90041EA5371DB0018186368A5
:103A60004FEA83024FEA937341F10001FCF72EFF06
:103A7000204AA2FB00314909642303FB11031B0107
:103A80003233A2FB03235B0903F0F00202EB0112C5
:103A900003F00F03216813448B6010BD002302184C
:103AA00043EB0301121841F10001C90041EA5271D0
:103AB000D200101841F10001626892185B41FCF7D6
:103AC00005FF0C4AA2FB00314909642303FB1103E3
:103AD000DB003233A2FB03235B095A0002F4F872C5
:103AE00002EB011203F00703216813448B60D4E753
:103AF000001001401F85EB512DE9F04383B00546CE
:103B00000E4617469946DDF828802B681C6836EA71
:103B100004040CBF01240024BC4228D1B8F1FF3FAB
:103B2000F3D0FEF753F9A0EB0900404523D8B8F1D4
:103B3000000F22D02B68DA6812F0040FE5D0802E37
:103B4000E3D0402EE1D01A6812F0080FDDD0002437
:103B500001941A6801925B680193019B2846FFF764
:103B6000E5FE08236B6485F84040012000E000205A
:103B700003B0BDE8F0830320FAE70320F8E760B361
:103B800010B5044690F8413013B3242384F8413033
:103B90002268D36823F40053D3602046FFF724FF44
:103BA0002268136923F4904313612268536923F058
:103BB0002A0353612268D36843F40053D360002082
:103BC0006064202384F8413084F84230606310BD83
:103BD00080F84030FDF7D8FFD7E7012070472DE986
:103BE000F04182B01E4690F84130DBB2202B56D116
:103BF00004460D469046002955D00AB901204FE0F1
:103C000000234364212380F84130FEF7DFF80746A4
:103C1000A4F82480A4F82680A368B3F5805F02D0BE
:103C20004FF0000814E023692BB34FF000080FE0B9
:103C3000202384F84130032032E038F8023B226828
:103C4000C3F308035360E28C92B2013A92B2E28469
:103C5000E38C9BB293B100963B4600228021204624
:103C6000FFF74AFF0028E3D1002DE6D015F8012B1D
:103C700023685A60E7E7A8460025E9E700963B4637
:103C8000002240212046FFF737FF18B9202384F88F
:103C9000413005E0202384F84130032000E0022079
:103CA00002B0BDE8F0810120FAE7704708B501686D
:103CB000CA6822F04002CA60202280F84120FFF743
:103CC000F4FF002008BD70477047704710B5846B43
:103CD00023685A6994F84130DBB2212B10D0236855
:103CE0005A6902F0400294F84230DBB2222B11D024
:103CF000636C43F0100363642046FFF7E6FF10BDDA
:103D000002F08002002AEAD00023E3842046FFF775
:103D1000FDFDE4E7002AEBD00023E3852046FFF712
:103D200005FEE5E708B5806B0023C385C384FFF774
:103D3000CCFF08BD90F84230DBB2222B69D18368FA
:103D4000B3F5805F4FD0826AB3F5805F04D0002B5B
:103D500056D10369002B53D103685B681370836AE3
:103D600001338362C38D9BB2013B9BB2C385002BA1
:103D700051D100B583B00268D36823F02003D3602B
:103D80000268D36823F48073D3600268536923F018
:103D900001035361202380F8423000234363036B07
:103DA000012B33D100230363026802F10C0353E8B3
:103DB000003F23F010030C3242E800310029F3D118
:103DC00003681A6812F0100F06D0002201921A68D8
:103DD00001925B680193019B818DFDF7D5FA00206C
:103DE00003B05DF804FB0269002AACD1826A036863
:103DF0005B68C3F308031380836A02338362B1E70D
:103E000003685B6803F07F031370A8E7FFF75BFFAD
:103E1000E5E70220704700207047000010B582B02F
:103E2000044602681368D068516913F00F0F09D176
:103E300013F0200F0CD010F0200F09D02046FFF710
:103E400079FF16E011F0010115D110F4907F12D125
:103E5000216B012979D013F0800F03D010F0800F6F
:103E600040F0148113F0400F03D010F0400F40F0E9
:103E7000118102B010BD13F0010F06D010F4807F45
:103E800003D0626C42F00102626413F0040F04D0AC
:103E900019B1626C42F00202626413F0020F04D0A6
:103EA00019B1626C42F00402626413F0080F07D08B
:103EB00010F0200F00D119B1626C42F00802626468
:103EC000626C002AD5D013F0200F02D010F0200F22
:103ED00029D123685B6903F04003626C12F0080F7C
:103EE00000D163B32046FFF721FD23685B6913F01F
:103EF000400F20D0226802F1140353E8003F23F062
:103F00004003143242E800310029F3D1E36B73B16E
:103F1000624A1A65E06BFEF752F90028A9D0E06BFF
:103F2000036D9847A5E72046FFF704FFD1E7204639
:103F3000FFF7CBFE9DE72046FFF7C7FE99E7204637
:103F4000FFF7C3FE0023636493E713F0100F82D0E2
:103F500010F0100F3FF47FAF00230193136801931B
:103F600053680193019B536913F0400F52D0E26BE9
:103F700013685B689BB2002B3FF47BAFA18D994225
:103F80007FF677AFE385D369B3F5807F37D02268BA
:103F900002F10C0353E8003F23F480730C3242E833
:103FA00000310029F3D1226802F1140353E8003FE5
:103FB00023F00103143242E800310029F3D12268D2
:103FC00002F1140353E8003F23F04003143242E8A7
:103FD00000310029F3D1202384F8423000232363E9
:103FE000226802F10C0353E8003F23F010030C3267
:103FF00042E800310029F3D1E06BFEF796F8022386
:104000006363A18DE38D9BB2C91A89B22046FDF787
:10401000BBF92EE7A18DE38D9BB2C91A89B2E38D5E
:104020009BB2002B3FF425AF00293FF422AF22685A
:1040300002F10C0353E8003F23F490730C3242E882
:1040400000300028F3D1226802F1140353E8003F46
:1040500023F00103143242E800300028F3D120237A
:1040600084F8423000232363226802F10C0353E8F2
:10407000003F23F010030C3242E800300028F3D157
:10408000022363632046FDF77FF9F2E62046FFF73F
:104090007BFCEEE62046FFF709FEEAE6253D000838
:1040A00008B5806B01234363036B012B02D0FFF73C
:1040B0000BFE08BD818D4908FDF766F9F9E708B5E3
:1040C0000346806B1B681B6813F4807F2BD1002391
:1040D000C385026802F10C0353E8003F23F48073A8
:1040E0000C3242E800310029F3D1026802F11403D6
:1040F00053E8003F23F00103143242E80031002965
:10410000F3D1026802F1140353E8003F23F04003A7
:10411000143242E800310029F3D1202380F84230E4
:10412000036B012B07D000234363036B012B0FD0DC
:10413000FFF7C9FD08BD026802F10C0353E8003F18
:1041400023F010030C3242E800310029F3D1EAE7F2
:10415000818DFDF719F9EDE730B583B004461346BC
:104160008162828500254564222280F84220C26B4C
:104170001F48D063E26B1F481064E26B1E48D06496
:10418000E26B156520680A46011DE06BFDF798FF9C
:10419000019523681A6801925B680193019B23696A
:1041A0005BB1226802F10C0353E8003F43F48073D3
:1041B0000C3242E800310029F3D1226802F11403E5
:1041C00053E8003F43F00103143242E80031002974
:1041D000F3D1226802F1140353E8003F43F0400397
:1041E000143242E800310029F3D1002003B030BD81
:1041F000BF400008A1400008CD3C000890F84230C4
:10420000DBB2202B29D110B582B0044639B312B9E4
:10421000012002B010BD0123036300234363FFF7B5
:104220009BFF0028F5D1236B012B01D00120F0E783
:104230000023019323681A6801925B680193019B34
:10424000226802F10C0353E8003F43F010030C32E4
:1042500042E800310029F3D1DBE70220704701205A
:10426000D7E7002304E0C2180021D17001339BB2CC
:10427000202BF8D9552383700023037043707047B7
:1042800038B5424B5B78202B7ED9002417E0404B99
:1042900033F91500FCF7C6FA4FF06051FBF798FFB1
:1042A0004FF08341FBF794FF05F10C02374B43F8C5
:1042B00022000135EDB2022DE9D90134E4B2022C1D
:1042C00062D804EB840304EB4303304AD118C97865
:1042D0009278914258D1591C2C4A0A44D278522AD9
:1042E0000ED0532A2ED0512AE7D10233274A134445
:1042F000274AD3F80300D3F8071003C20025DAE7F2
:104300000233224A1344234AD3F80300D3F8071098
:1043100003C2002513E01F4B33F91500FCF782FAA6
:104320004FF06051FBF754FF1B49FBF751FF05F1BC
:104330000E02164B03EB820358600135EDB2022DDD
:10434000E9D9BAE70233114A1344144AD3F80300F7
:10435000D3F8071003C2002513E0104B33F9150002
:10436000FCF760FA4FF06051FBF732FF0C49FBF7A6
:104370002FFF05F10802054B03EB8203586001355E
:10438000EDB2022DE9D998E738BD00BFBC09002085
:10439000B4090020AC0900200000FA44A409002060
:1043A0000000344310B5094C002220212046FEF7BE
:1043B00001F96420FDF710FD012220212046FEF7BF
:1043C000F9F86420FDF708FD10BD00BF00080240A9
:1043D00010B582B08DF80700002210210B48FEF7BF
:1043E000E9F80B4C002210212046FEF7E3F84FF0CD
:1043F000FF3301220DF107010648FEF718FD0122E7
:1044000010212046FEF7D6F802B010BD0000024091
:10441000000802406407002010B582B08DF8070044
:10442000012210210B48FEF7C5F80B4C0022102189
:104430002046FEF7BFF84FF0FF3301220DF10701D0
:104440000648FEF7F4FC012210212046FEF7B2F8E0
:1044500002B010BD000002400008024064070020C6
:1044600070B504460D46012210210B48FEF7A2F854
:104470000A4E002210213046FEF79CF84FF0FF3321
:10448000AAB221460648FEF7D2FC0122102130468E
:10449000FEF790F870BD00BF000002400008024027
:1044A0006407002010B501280CD003280CD038B1C7
:1044B00000243620FFF78CFF2046FFF7ADFF10BD2C
:1044C000C024F6E7A024F4E76024F2E7F0B583B057
:1044D0000130C7B21A31CDB20132D6B21A33DCB2D2
:1044E0002A20FFF775FF00238DF804308DF8057042
:1044F0008DF806308DF8076004210DEB0100FFF701
:10450000AFFF2B20FFF764FF8DF805508DF80740B3
:1045100004210DEB0100FFF7A3FF03B0F0BD000085
:1045200070B515461E46BDF810204FF0000C0CE08B
:104530004FEA4C04134B4FEA122E03F81CE00134EF
:104540001A550CF1010C1FFA8CFCAC45F0D3C0B22B
:10455000C9B24219D2B28B19DBB2013B013ADBB2CC
:10456000D2B2FFF7B3FF2C20FFF732FF002405E0A3
:1045700069000448FFF774FF0134A4B2B442F7D3D2
:1045800070BD00BF040A00202DE9F04782B09246BA
:104590001F46BDF828800B9DC0B2C9B22A780244DC
:1045A000D2B26B780B44DBB2013B013ADBB2D2B240
:1045B000FFF78CFF2C20FFF70BFF4FF0000927E0DF
:1045C000AAF12E012DE04FF4004313E04FEA182327
:1045D0008DF804308DF80580022101A8FFF740FF17
:1045E00001342978A14211D906FA04F21029EAD936
:1045F0004FF000431A42E9D03B0A8DF804308DF8A1
:104600000570022101A8FFF72BFFE9E709F1010975
:104610006B784B450BD96A6806498D42D0D0AAF118
:10462000200101FB039352F823600024D9E702B074
:10463000BDE8F087189400082DE9F04383B00446E4
:104640000F4616469846BDF828900B9D0FE06878F7
:104650003844502816DC0195CDF800904346394681
:104660002046FFF791FF2B7823449CB20136327825
:1046700042B12B782344A02BE9DD6B783B449FB2F9
:104680000024E4E703B0BDE8F08300B583B00090F8
:104690005023A02200210846FFF742FF03B05DF837
:1046A00004FB08B5FFF77EFE1120FFF791FE78208E
:1046B000FDF792FBB120FFF78BFE0120FFF7ACFE68
:1046C0002C20FFF7A9FE2D20FFF7A6FEB220FFF752
:1046D0007FFE0120FFF7A0FE2C20FFF79DFE2D207E
:1046E000FFF79AFEB320FFF773FE0120FFF794FE59
:1046F0002C20FFF791FE2D20FFF78EFE0120FFF703
:104700008BFE2C20FFF788FE2D20FFF785FEB420BE
:10471000FFF75EFE0720FFF77FFEC020FFF758FE81
:10472000A220FFF779FE0220FFF776FE8420FFF734
:1047300073FEC120FFF74CFEC520FFF76DFEC220BF
:10474000FFF746FE0A20FFF767FE0020FFF764FE32
:10475000C320FFF73DFE8A20FFF75EFE2A20FFF709
:104760005BFEC420FFF734FE8A20FFF755FEEE20E3
:10477000FFF752FEC520FFF72BFE0E20FFF74CFE81
:104780002020FFF725FE3A20FFF722FE0520FFF745
:1047900043FE2A20FFF71CFE0020FFF73DFE00200D
:1047A000FFF73AFE0020FFF737FE7F20FFF734FEC9
:1047B0002B20FFF70DFE0020FFF72EFE0020FFF755
:1047C0002BFE0020FFF728FE9F20FFF725FEE020AC
:1047D000FFF7FEFD0220FFF71FFE1C20FFF71CFE67
:1047E0000720FFF719FE1220FFF716FE3720FFF70C
:1047F00013FE3220FFF710FE2920FFF70DFE2D20BB
:10480000FFF70AFE2920FFF707FE2520FFF704FE29
:104810002B20FFF701FE3920FFF7FEFD0020FFF7F8
:10482000FBFD0120FFF7F8FD0320FFF7F5FD102049
:10483000FFF7F2FDE120FFF7CBFD0320FFF7ECFDD2
:104840001D20FFF7E9FD0720FFF7E6FD0620FFF733
:10485000E3FD2E20FFF7E0FD2C20FFF7DDFD2920F2
:10486000FFF7DAFD2D20FFF7D7FD2E20FFF7D4FD4F
:104870002E20FFF7D1FD3720FFF7CEFD3F20FFF7B9
:10488000CBFD0020FFF7C8FD0020FFF7C5FD02208B
:10489000FFF7C2FD1020FFF7BFFD1320FFF798FDC3
:1048A0000A20FDF799FA2920FFF792FD0A20FDF76B
:1048B00093FA0320FFF7F6FD0020FFF7E6FE08BDA0
:1048C000F0B58FB004460D4617461E469DF8583089
:1048D0000D4A102102A800F0DBF83846FBF790FEE5
:1048E000CDE9000102AA202106A800F0D1F8159B0D
:1048F0000193BDF850300093334606AA294620465E
:10490000FFF79AFE0FB0F0BDE4AE0008002310B52B
:104910000446C0E90033C0E9043383608181436603
:10492000C2818361194608225C3000F048F90D4BC2
:1049300023620D4B63620D4BA3620D4BE3620D4B83
:10494000E4619C4206D003F16802944202D0D03365
:104950009C4205D104F15800BDE8104000F0A8B910
:1049600010BD00BF394B00085B4B0008934B00089B
:10497000B74B0008440B0020024A0349034800F0EB
:1049800069B800BF0C000020356700082000002037
:1049900041680C4B994210B5044601D001F0CAFEA3
:1049A000A168094B994202D0204601F0C3FEE1689C
:1049B000064B994204D02046BDE8104001F0BABE33
:1049C00010BD00BF440B0020AC0B0020140C0020D5
:1049D00010B50B4B0B4C0C4A1A60204600220421E8
:1049E000FFF794FF04F1680001220921FFF78EFF11
:1049F00004F1D0000222BDE810401221FFF786BF6B
:104A00007C0C0020440B002079490008014800F08C
:104A100051B900BF860C0020014800F04CB900BF1E
:104A2000860C002010B50446FFF7F0FF636B1BB146
:104A3000BDE81040FFF7F0BF044B6363044B1B68F5
:104A4000002BF5D1FFF7C4FFF2E700BF9149000842
:104A50007C0C00202DE9F8430746884614460026C2
:104A6000D4E90195B9F1010905D52468002CF7D1E5
:104A70003046BDE8F883AB89012B07D9B5F90E3074
:104A8000013303D029463846C04706436835E9E775
:104A90000CB430B5174B0C1E1D689DB008DA8B2383
:104AA0002B604FF0FF301DB0BDE8304002B07047C2
:104AB0004FF40273ADF8143014BF04F1FF332346F2
:104AC000049307934FF6FF7302900690ADF81630EB
:104AD000209A21AB02A92846019300F067FC431CF1
:104AE000BCBF8B232B60002CDDD0029B00221A70F0
:104AF000D9E700BF180000200EB400B59CB01DAB74
:104B0000029006906FF0004109480791049109490D
:104B100053F8042B05910068019302A900F046FCAC
:104B2000029B00221A701CB05DF804EB03B07047C2
:104B3000180000200802FFFF10B50C46B1F90E1056
:104B400000F068F80028ABBF236DA3891B1823F47D
:104B50008053ACBF2365A38110BD2DE9F0411F46F2
:104B60008B89DB0505460C46164605D5B1F90E10B6
:104B70000223002200F03CF8A389B4F90E1023F4BC
:104B80008053A38132463B462846BDE8F04100F001
:104B900053B810B50C46B1F90E1000F029F8431CBB
:104BA000A38915BF206523F4805343F48053A38168
:104BB00018BFA38110BDB1F90E1000F009B802446E
:104BC0000346934200D1704703F8011BF9E7000048
:104BD00038B5064D0023044608462B60FCF78EFED0
:104BE000431C02D12B6803B1236038BD800C002028
:104BF00038B5074D04460846114600222A601A4679
:104C0000FCF786FE431C02D12B6803B1236038BD3C
:104C1000800C002038B5074D044608461146002296
:104C20002A601A46FCF74CFE431C02D12B6803B1E4
:104C3000236038BD800C002038B5074D0446084677
:104C4000114600222A601A46FCF74AFE431C02D194
:104C50002B6803B1236038BD800C0020014B18681D
:104C6000704700BF1800002070B50D4D0D4C641B3F
:104C7000A4100026A64209D10B4D0C4C04F082FB77
:104C8000641BA4100026A64205D170BD55F8043B54
:104C900098470136EEE755F8043B98470136F2E7AE
:104CA00080B2000880B2000880B2000888B2000814
:104CB00070477047704770470A44914200F1FF33D4
:104CC00000D1704710B511F8014B03F8014F914224
:104CD000F9D110BD024B13B1024800F005B870477E
:104CE0000000000081690008002301461A461846AA
:104CF00001F09ABE2DE9F84306460820894601F0E6
:104D000053FE244F8046304600F044FBBB685D688C
:104D100025F00305A5F11104A4EB09044444B4FBF8
:104D2000F8F4013C08FB04F4A04505DD304600F032
:104D300037FB0020BDE8F8830021304601F010FE6B
:104D4000BB682B449842F1D16142304601F008FE25
:104D5000013010D10021304601F002FEBA68831AFA
:104D60000F2BE3DD0C490968401A0C4943F001039D
:104D700008605360DAE7BB68084A2D1B45F001055F
:104D80005D60136830461B1B136000F009FB0120B7
:104D9000D0E700BF4C010020440100208C0C002013
:104DA000F8B504460F46002900F0B18000F0F2FA91
:104DB00057F8042C564D22F00100A7F1080303EB2D
:104DC000000CA968DCF80460614526F0030602F0D7
:104DD00001021BD106443AB957F8082C9B1A164415
:104DE000D3E90212CA60916046F001025A60AB60DA
:104DF000484B1B68B34204D8474B20461968FFF75D
:104E000079FF2046BDE8F84000F0CABACCF804604B
:104E1000002A38D157F8081C5B1A0844996805F134
:104E20000807B94231D0DF68CF60B9600CEB0601EA
:104E30004968C9070BD4DCF8081030443ABB374E38
:104E4000B14224D1C5E90433C3E90211012240F083
:104E5000010159601850002AD3D1B0F5007F1BD250
:104E6000C20801214009814068680132014369603C
:104E700055F8320005EBC2010839C3E9020145F8D3
:104E80003230C360BDE70022D0E70122CEE7DCF874
:104E90000C60CE60B160DAE7B0F5206F4FEA5022C7
:104EA00014D282093832511C05EBC20655F8311074
:104EB0008E4225D10120921000FA02F26868024366
:104EC0006A60C3E90216B360CB609AE7142A01D87E
:104ED0005B32E8E7542A02D8020B6E32E3E7B2F500
:104EE000AA7F02D8C20B7732DDE740F254518A42E2
:104EF0009ABF820C7C327E22D5E789688E4204D02C
:104F00004A6822F003028242F7D8CE68D9E7F8BD9A
:104F10004C01002048010020BC0C0020540100205E
:104F200001F10B03162B2DE9F74F054606D933F097
:104F3000070704D50C232B600024A1E11027B942F8
:104F4000F8D8284600F026FAB7F5FC7FAE4E37D2E7
:104F500007F108023244A2F1080154688C424FEA7A
:104F6000D70302D1D468A24210D06368D4E90212F8
:104F700023F00303CA60234491605A6842F001029F
:104F80005A60284600F00CFA083479E1023334699B
:104F90009E498C4277D0626822F0030CACEB07008C
:104FA0000F2848DDE21940F0010347F00107676070
:104FB000C6E90422C2E90211536044F80C00E0E79C
:104FC0007B0A2AD0042B12D8BB0938335A1C06EBB3
:104FD000C202A2F1080C5468644506D0626822F04F
:104FE0000302D01B0F281CDD013B0133CFE7142B3C
:104FF00001D85B33EAE7542B02D83B0B6E33E5E76D
:10500000B3F5AA7F02D8FB0B7733DFE740F25452A7
:10501000934204D8BB0C7C33D8E73F23D6E77E23EA
:10502000D4E70028E16804DBA368D9608B60A3188B
:10503000A3E70C46D0E70028C6E9041107DBA44427
:10504000DCF8043043F00103CCF8043099E7BCF5F8
:10505000007F706880F093804FEADC024FEA5C1EAC
:105060004FF0010C01320CFA0EFC4CEA00007060AB
:1050700056F832C006EBC2000838C4E902C046F850
:105080003240CCF80C409810012282407068904267
:1050900026D3104206D123F003035200104203F13D
:1050A0000403FAD006EBC308C1469E46D9F80C406B
:1050B0004C4540F0B7800EF1010E1EF0030F09F1D0
:1050C0000809F3D1980740F0E180736823EA0203EE
:1050D000736070685200904202D3002A40F0E3806F
:1050E000D6F808A0DAF8043023F00309B94504D350
:1050F000A9EB07020F2A00F34181454B19681031D3
:1051000039440820019101F04FFC424A019913688B
:1051100001331FBF01F1FF31091843421940804696
:105120002846019101F01CFC421C0AEB090B0446C5
:1051300000F0F78083450199364A02D9B24540F024
:10514000F080354B1868A3450844186008F1FF3C0F
:1051500040F0AB801BEA0C0F40F0A780B2684944D6
:1051600041F0010151602D4A1B6811688B4288BFD4
:1051700013602B4A11688B4288BF1360D1E0BCF5E5
:10518000206F4FEA5C2218D24FEA9C12383202F1AB
:10519000010E06EBC20856F83EE0F0452BD1921006
:1051A0004FF0010C0CFA02F202437260C4E902E80B
:1051B000C8F80840CEF80C4065E7142A01D85B32E5
:1051C000E5E7542A03D84FEA1C326E32DFE7B2F526
:1051D000AA7F03D84FEADC327732D8E740F2545E38
:1051E00072459ABF4FEA9C427C327E22CFE7DEF8BE
:1051F00008E0F04505D0DEF8042022F00302624505
:10520000F5D8DEF80C80D1E74C01002054010020D5
:10521000BC0C0020440100208C0C0020B80C0020A5
:10522000B40C00206068D4F80CC020F00300A0EBA0
:10523000070ABAF10F0F12DDA368E21947F0010760
:105240006760C3F80CC0CCF808304AF00103C6E927
:105250000422C2E90211536044F800A091E6BAF1B9
:10526000000F11DB2044436843F00103436054F80E
:10527000083F2846C3F80CC0CCF8083000F090F87E
:10528000204603B0BDE8F08F644611E758F80809DE
:10529000404503F1FF333FF415AF1AE704335200E2
:1052A0001042FBD0FEE67346FAE7D2F800E0BEF10A
:1052B000FF3F1BBFA4EB0B0B0BEB000214601A604B
:1052C00014F0070B1ABFCBF10800241858466218D7
:1052D00002EA0C018044A8EB010808EA0C084146E8
:1052E0002846019201F03CFB431C019A284B07D150
:1052F000BBF1000F23D0ABF1080010444FF00008C1
:105300001A68B460001B4044424440F00100B245BA
:105310001A6060603FF427AFB9F10F0F12D8012374
:105320006360B3685B6823F00303BB42A3EB07022F
:1053300001D30F2A22DC284600F032F8FCE51046A3
:10534000D846DDE7DAF80420A9F10C0929F00709AD
:1053500002F0010242EA0902CAF8042005210AEB20
:105360000902B9F10F0FC2E901117FF6FCAE0AF193
:1053700008012846FFF714FD054BF4E6B46847F032
:105380000103274442F001026360B7607A60F8E5E8
:105390008C0C00200148FFF78DBC00BF840C00205E
:1053A0000148FFF788BC00BF840C00202DE9F04FB6
:1053B000D7B0884691461E46079001F0CDFA0368A3
:1053C0001A931846FBF7FAFBB8F80C30119019063F
:1053D00015D5D8F8103093B907984021FFF7A0FDF4
:1053E000C8F80000C8F8100030B9079A0C23136001
:1053F0004FF0FF331393F0E14023C8F8143000233B
:10540000CDE92B33089300220023CDE90E2300239E
:10541000CDE91C332DAC2A940D9316931B93139353
:105420004B461D4613F8012B0AB1252AF9D1B5EBDD
:1054300009070DD02C9B3B442C932B9B0133072B4E
:10544000C4E900972B9375DC0834139B3B441393FA
:105450002B78002B01F02C8100226B1C8DF88B2007
:105460004FF0FF351292934613F8012B0A921093D6
:105470000A9B203B5A2B00F29D85DFE813F09E002B
:105480009B059B05A6009B059B059B0586009B0530
:105490009B05A900B3009B05B000B5009B05CE009D
:1054A000D100D100D100D100D100D100D100D10074
:1054B000D1009B059B059B059B059B059B059B05BB
:1054C00041019B05FF0011014101410141019B0583
:1054D0009B059B059B05E2009B059B0595049B0591
:1054E0009B059B05DD049B05FD049B059B051F0596
:1054F0009B059B059B059B059B059B059B059B05AC
:1055000041019B05FF001301410141014101E500FB
:105510001301F9009B05F2009B0572049704CC046B
:10552000F9009B05DD049C00FF049B059B056500BD
:105530009B059C0007982AAA414602F01BFC002804
:1055400040F046812DAC80E7A74B1D931BF0200354
:1055500000F0B784073626F007031A465F6852F852
:10556000086B0B921BF0010F0AD056EA070307D015
:1055700030238DF88C300A9B8DF88D304BF0020B68
:105580002BF4806B022300F01FBC079801F0E4F9B4
:1055900043681B931846FBF711FB1690079801F020
:1055A000DBF983680D93169B2BB10D9B1BB11B7808
:1055B0000BB14BF4806B109B56E79DF88B30002BA2
:1055C000F9D120238DF88B30F5E74BF0010BF2E792
:1055D00056F8043B1293002BEDDA5B4212934BF02A
:1055E000040BE8E72B23EDE7109B13F8012B0A923D
:1055F0002A2A0FD156F8045B109345EAE575DAE7DD
:1056000001FB052513F8012B0A920A9A303A092A60
:10561000F6D92CE700250A21F7E74BF0800BCAE703
:105620000022109B12920A210A9A1298303A01FB2A
:105630000022129213F8012B0A92303A092AF3D968
:1056400015E74BF0080BB6E7109B1B78682B01BFE2
:10565000109B013310934BF4007B18BF4BF0400BB1
:10566000A9E7109B1B786C2B05D1109B013310937D
:105670004BF0200B9FE74BF0100B9CE7324652F8A3
:10568000043B8DF8F43000230B928DF88B309A4652
:10569000012514931F460C931E460DF1F409CFE12A
:1056A0004BF0100B1BF0200F12D0073626F007032B
:1056B0001A465F6852F8086B0B92002F06DA7642A2
:1056C0004FF02D0367EB47078DF88B3001237EE306
:1056D00033461BF0100F53F8047B0B9302D03E4669
:1056E000FF17EAE71BF0400F03D03EB247F3C03785
:1056F000E3E71BF4007FF2D07EB247F3C017DCE78C
:10570000073626F007031946F1E80223CDE90E23F8
:105710000E9B1E930F9B0B9123F000431F93DDE91B
:105720001E01324B4FF0FF32FBF73CFD08BBDDE9B9
:105730001E012E4B4FF0FF32FBF716FDC8B9DDE915
:105740000E0100220023FBF705FD10B12D238DF87B
:105750008B30274A274B0A992BF0800B4729D4BF5F
:10576000914699464FF0000A0325CDF850A000F06D
:10577000D7BFDDE90E2310461946FBF713FD82461D
:1057800040B10F9B1C4A002BBCBF2D238DF88B30E2
:105790001A4BE0E70A9B612B23D0412B30D15823D1
:1057A0003022632D8DF88C208DF88D304BF0020B5C
:1057B00040F3A9800798691CFFF7B2FB81460028D7
:1057C00040F0A680B8F80C3043F04003A8F80C3045
:1057D000B8F80C305B063FF50BAE139857B0BDE838
:1057E000F08F7823DCE700BFFBAE0008FFFFEF7F00
:1057F000EBAE0008EFAE0008F3AE0008F7AE00080D
:105800006A1C00F087800A9B23F02003472B02D1FB
:105810000DB9AA4601254BF4807315930F9B002BFD
:105820007ADA0E9B18930F9B03F1004319932D23F3
:1058300020930A9B23F02003412B0C9340F0D98145
:1058400024AADDE9180101F0BBF800224FF07F53D4
:10585000FBF70EFA02460B46CDE90823002200238F
:10586000FBF76EFC08B1012324932F4A2F4B0A99B2
:10587000612918BF1A4614926F1E4E46DDE90801D1
:105880002B4B0022FBF7F4F902460B46CDE9082327
:10589000FBF79EFC1790FAF7A1FE02460B46DDE9E6
:1058A0000801FAF74DFD02460B46CDE90823149B8B
:1058B000179A9B5C06F8013B7B1C06D07B1E21934C
:1058C00000220023FBF73CFC60B3DDE90801194B23
:1058D0000022FBF75DFC78BBDDE90801154B0022D7
:1058E000FBF72EFC10B1179BDA0725D43346F119CC
:1058F0003020CA1A002A80F279817B1C0137B8BF98
:1059000000231E442CE04FF0000A0DF1F40982E759
:10591000824680E706257EE7DDE90E23CDE91823E0
:10592000002385E7219FA9E7FBAE00080CAF000824
:10593000000030400000E03F149B2896D97B3020C7
:10594000289A531E289312F8013C8B4200F04B8199
:10595000392B0BBF149B01339B7ADBB202F8013C5D
:10596000A6EB090308930C9B249E472B40F08B81E8
:10597000F31C02DBAE4240F3A9810A9B023B0A936F
:105980000A999DF8282021F02001412908BF0F32F3
:1059900006F1FF3306BFD2B201210021002B249370
:1059A000B8BFC6F101038DF89820B4BF2D222B2279
:1059B000092B8DF8992040F37C810DF1A7000A2670
:1059C0000246B3FBF6F506FB1531303102F8011C37
:1059D0001946632900F1FF302B46F1DC3033911E6C
:1059E00000F8013C0DF199050B460DF1A70083422B
:1059F000C0F05A810DF1A9039B1A814288BF002390
:105A00000DF19A021A4426ABD31A089A1C93012A64
:105A100003EB020502DC1BF0010F01D0119B1D44BA
:105A20002BF48063002743F4807315930C973E4654
:105A3000209B002B40F091810023DDF854B014939B
:105A4000149BAB42B8BF2B4615939DF88B3013B116
:105A5000159B013315931BF0020320931EBF159B6A
:105A6000023315931BF08403219322D1129B159AC4
:105A70009B1A002B17931CDD1798DDE92B231028A8
:105A80009F48206002F1010204F1080100F39E82A8
:105A9000179860600344072ACDE92B2340F3AB82BB
:105AA00007982AAA414602F065F9002840F0DE85F1
:105AB0002DAC9DF88B202C9B6AB10DF18B022260DE
:105AC000012213442C932B9B62601344072B2B93CE
:105AD00000F393820834209A2C9B62B123AA22609F
